{
  "contractName": "Membership",
  "abi": [
    {
      "anonymous": false,
      "inputs": [
        {
          "indexed": false,
          "internalType": "address payable",
          "name": "owner",
          "type": "address"
        },
        {
          "indexed": false,
          "internalType": "uint256",
          "name": "price",
          "type": "uint256"
        },
        {
          "indexed": false,
          "internalType": "bool",
          "name": "sell_approve",
          "type": "bool"
        }
      ],
      "name": "BronzeApprove",
      "type": "event"
    },
    {
      "anonymous": false,
      "inputs": [
        {
          "indexed": false,
          "internalType": "address payable",
          "name": "owner",
          "type": "address"
        },
        {
          "indexed": false,
          "internalType": "uint256",
          "name": "price",
          "type": "uint256"
        },
        {
          "indexed": false,
          "internalType": "bool",
          "name": "sell_approve",
          "type": "bool"
        }
      ],
      "name": "BronzeBought",
      "type": "event"
    },
    {
      "anonymous": false,
      "inputs": [
        {
          "indexed": false,
          "internalType": "address payable",
          "name": "owner",
          "type": "address"
        },
        {
          "indexed": false,
          "internalType": "uint256",
          "name": "price",
          "type": "uint256"
        },
        {
          "indexed": false,
          "internalType": "bool",
          "name": "sell_approve",
          "type": "bool"
        }
      ],
      "name": "BronzePurchased",
      "type": "event"
    },
    {
      "anonymous": false,
      "inputs": [
        {
          "indexed": false,
          "internalType": "address payable",
          "name": "owner",
          "type": "address"
        },
        {
          "indexed": false,
          "internalType": "uint256",
          "name": "price",
          "type": "uint256"
        },
        {
          "indexed": false,
          "internalType": "bool",
          "name": "sell_approve",
          "type": "bool"
        }
      ],
      "name": "BronzeSell",
      "type": "event"
    },
    {
      "anonymous": false,
      "inputs": [
        {
          "indexed": false,
          "internalType": "address payable",
          "name": "owner",
          "type": "address"
        },
        {
          "indexed": false,
          "internalType": "uint256",
          "name": "price",
          "type": "uint256"
        },
        {
          "indexed": false,
          "internalType": "bool",
          "name": "sell_approve",
          "type": "bool"
        }
      ],
      "name": "GoldApprove",
      "type": "event"
    },
    {
      "anonymous": false,
      "inputs": [
        {
          "indexed": false,
          "internalType": "address payable",
          "name": "owner",
          "type": "address"
        },
        {
          "indexed": false,
          "internalType": "uint256",
          "name": "price",
          "type": "uint256"
        },
        {
          "indexed": false,
          "internalType": "bool",
          "name": "sell_approve",
          "type": "bool"
        }
      ],
      "name": "GoldBought",
      "type": "event"
    },
    {
      "anonymous": false,
      "inputs": [
        {
          "indexed": false,
          "internalType": "address payable",
          "name": "owner",
          "type": "address"
        },
        {
          "indexed": false,
          "internalType": "uint256",
          "name": "price",
          "type": "uint256"
        },
        {
          "indexed": false,
          "internalType": "bool",
          "name": "sell_approve",
          "type": "bool"
        }
      ],
      "name": "GoldPurchased",
      "type": "event"
    },
    {
      "anonymous": false,
      "inputs": [
        {
          "indexed": false,
          "internalType": "address payable",
          "name": "owner",
          "type": "address"
        },
        {
          "indexed": false,
          "internalType": "uint256",
          "name": "price",
          "type": "uint256"
        },
        {
          "indexed": false,
          "internalType": "bool",
          "name": "sell_approve",
          "type": "bool"
        }
      ],
      "name": "GoldSell",
      "type": "event"
    },
    {
      "anonymous": false,
      "inputs": [
        {
          "indexed": true,
          "internalType": "address",
          "name": "previousOwner",
          "type": "address"
        },
        {
          "indexed": true,
          "internalType": "address",
          "name": "newOwner",
          "type": "address"
        }
      ],
      "name": "OwnershipTransferred",
      "type": "event"
    },
    {
      "anonymous": false,
      "inputs": [
        {
          "indexed": false,
          "internalType": "address payable",
          "name": "owner",
          "type": "address"
        },
        {
          "indexed": false,
          "internalType": "uint256",
          "name": "price",
          "type": "uint256"
        },
        {
          "indexed": false,
          "internalType": "bool",
          "name": "sell_approve",
          "type": "bool"
        }
      ],
      "name": "SilverApprove",
      "type": "event"
    },
    {
      "anonymous": false,
      "inputs": [
        {
          "indexed": false,
          "internalType": "address payable",
          "name": "owner",
          "type": "address"
        },
        {
          "indexed": false,
          "internalType": "uint256",
          "name": "price",
          "type": "uint256"
        },
        {
          "indexed": false,
          "internalType": "bool",
          "name": "sell_approve",
          "type": "bool"
        }
      ],
      "name": "SilverBought",
      "type": "event"
    },
    {
      "anonymous": false,
      "inputs": [
        {
          "indexed": false,
          "internalType": "address payable",
          "name": "owner",
          "type": "address"
        },
        {
          "indexed": false,
          "internalType": "uint256",
          "name": "price",
          "type": "uint256"
        },
        {
          "indexed": false,
          "internalType": "bool",
          "name": "sell_approve",
          "type": "bool"
        }
      ],
      "name": "SilverPurchased",
      "type": "event"
    },
    {
      "anonymous": false,
      "inputs": [
        {
          "indexed": false,
          "internalType": "address payable",
          "name": "owner",
          "type": "address"
        },
        {
          "indexed": false,
          "internalType": "uint256",
          "name": "price",
          "type": "uint256"
        },
        {
          "indexed": false,
          "internalType": "bool",
          "name": "sell_approve",
          "type": "bool"
        }
      ],
      "name": "SilverSell",
      "type": "event"
    },
    {
      "inputs": [
        {
          "internalType": "uint256",
          "name": "",
          "type": "uint256"
        }
      ],
      "name": "bronze_list",
      "outputs": [
        {
          "internalType": "address payable",
          "name": "owner",
          "type": "address"
        },
        {
          "internalType": "uint256",
          "name": "price",
          "type": "uint256"
        },
        {
          "internalType": "bool",
          "name": "sell_approve",
          "type": "bool"
        }
      ],
      "stateMutability": "view",
      "type": "function",
      "constant": true
    },
    {
      "inputs": [],
      "name": "bronze_owner_count",
      "outputs": [
        {
          "internalType": "uint256",
          "name": "",
          "type": "uint256"
        }
      ],
      "stateMutability": "view",
      "type": "function",
      "constant": true
    },
    {
      "inputs": [
        {
          "internalType": "uint256",
          "name": "",
          "type": "uint256"
        }
      ],
      "name": "gold_list",
      "outputs": [
        {
          "internalType": "address payable",
          "name": "owner",
          "type": "address"
        },
        {
          "internalType": "uint256",
          "name": "price",
          "type": "uint256"
        },
        {
          "internalType": "bool",
          "name": "sell_approve",
          "type": "bool"
        }
      ],
      "stateMutability": "view",
      "type": "function",
      "constant": true
    },
    {
      "inputs": [],
      "name": "gold_owner_count",
      "outputs": [
        {
          "internalType": "uint256",
          "name": "",
          "type": "uint256"
        }
      ],
      "stateMutability": "view",
      "type": "function",
      "constant": true
    },
    {
      "inputs": [],
      "name": "owner",
      "outputs": [
        {
          "internalType": "address",
          "name": "",
          "type": "address"
        }
      ],
      "stateMutability": "view",
      "type": "function",
      "constant": true
    },
    {
      "inputs": [],
      "name": "renounceOwnership",
      "outputs": [],
      "stateMutability": "nonpayable",
      "type": "function"
    },
    {
      "inputs": [
        {
          "internalType": "uint256",
          "name": "",
          "type": "uint256"
        }
      ],
      "name": "silver_list",
      "outputs": [
        {
          "internalType": "address payable",
          "name": "owner",
          "type": "address"
        },
        {
          "internalType": "uint256",
          "name": "price",
          "type": "uint256"
        },
        {
          "internalType": "bool",
          "name": "sell_approve",
          "type": "bool"
        }
      ],
      "stateMutability": "view",
      "type": "function",
      "constant": true
    },
    {
      "inputs": [],
      "name": "silver_owner_count",
      "outputs": [
        {
          "internalType": "uint256",
          "name": "",
          "type": "uint256"
        }
      ],
      "stateMutability": "view",
      "type": "function",
      "constant": true
    },
    {
      "inputs": [
        {
          "internalType": "address",
          "name": "newOwner",
          "type": "address"
        }
      ],
      "name": "transferOwnership",
      "outputs": [],
      "stateMutability": "nonpayable",
      "type": "function"
    },
    {
      "stateMutability": "payable",
      "type": "receive",
      "payable": true
    },
    {
      "inputs": [],
      "name": "gold_buy",
      "outputs": [],
      "stateMutability": "payable",
      "type": "function",
      "payable": true
    },
    {
      "inputs": [
        {
          "internalType": "uint256",
          "name": "_price",
          "type": "uint256"
        }
      ],
      "name": "gold_sell",
      "outputs": [
        {
          "internalType": "bool",
          "name": "",
          "type": "bool"
        }
      ],
      "stateMutability": "payable",
      "type": "function",
      "payable": true
    },
    {
      "inputs": [],
      "name": "gold_approve",
      "outputs": [
        {
          "internalType": "bool",
          "name": "",
          "type": "bool"
        }
      ],
      "stateMutability": "nonpayable",
      "type": "function"
    },
    {
      "inputs": [
        {
          "internalType": "uint256",
          "name": "card_id",
          "type": "uint256"
        }
      ],
      "name": "gold_request_buy",
      "outputs": [],
      "stateMutability": "payable",
      "type": "function",
      "payable": true
    },
    {
      "inputs": [],
      "name": "silver_buy",
      "outputs": [],
      "stateMutability": "payable",
      "type": "function",
      "payable": true
    },
    {
      "inputs": [
        {
          "internalType": "uint256",
          "name": "_price",
          "type": "uint256"
        }
      ],
      "name": "silver_sell",
      "outputs": [
        {
          "internalType": "bool",
          "name": "",
          "type": "bool"
        }
      ],
      "stateMutability": "payable",
      "type": "function",
      "payable": true
    },
    {
      "inputs": [],
      "name": "silver_approve",
      "outputs": [
        {
          "internalType": "bool",
          "name": "",
          "type": "bool"
        }
      ],
      "stateMutability": "nonpayable",
      "type": "function"
    },
    {
      "inputs": [
        {
          "internalType": "uint256",
          "name": "card_id",
          "type": "uint256"
        }
      ],
      "name": "silver_request_buy",
      "outputs": [],
      "stateMutability": "payable",
      "type": "function",
      "payable": true
    },
    {
      "inputs": [],
      "name": "bronze_buy",
      "outputs": [],
      "stateMutability": "payable",
      "type": "function",
      "payable": true
    },
    {
      "inputs": [
        {
          "internalType": "uint256",
          "name": "_price",
          "type": "uint256"
        }
      ],
      "name": "bronze_sell",
      "outputs": [
        {
          "internalType": "bool",
          "name": "",
          "type": "bool"
        }
      ],
      "stateMutability": "payable",
      "type": "function",
      "payable": true
    },
    {
      "inputs": [],
      "name": "bronze_approve",
      "outputs": [
        {
          "internalType": "bool",
          "name": "",
          "type": "bool"
        }
      ],
      "stateMutability": "nonpayable",
      "type": "function"
    },
    {
      "inputs": [
        {
          "internalType": "uint256",
          "name": "card_id",
          "type": "uint256"
        }
      ],
      "name": "bronze_request_buy",
      "outputs": [],
      "stateMutability": "payable",
      "type": "function",
      "payable": true
    },
    {
      "inputs": [],
      "name": "reclaimETH",
      "outputs": [],
      "stateMutability": "nonpayable",
      "type": "function"
    }
  ],
  "bytecode": "0x608060405260006002556000600455600060065534801561001f57600080fd5b5060006100306100d360201b60201c565b9050806000806101000a81548173ffffffffffffffffffffffffffffffffffffffff021916908373ffffffffffffffffffffffffffffffffffffffff1602179055508073ffffffffffffffffffffffffffffffffffffffff16600073ffffffffffffffffffffffffffffffffffffffff167f8be0079c531659141344cd1fd0a4f28419497f9722a3daafe3b4186f6b6457e060405160405180910390a3506100db565b600033905090565b611f5b806100ea6000396000f3fe6080604052600436106101395760003560e01c806397086e48116100ab578063eaa6fd991161006f578063eaa6fd9914610420578063ec9f883214610495578063f2028396146104c0578063f2fde38b146104ed578063f3de921c1461053e578063f9cdd6ce1461056b57610140565b806397086e481461032a578063a7db3b5414610358578063c364c9b714610383578063e27b073b146103b1578063e3dea81a146103dc57610140565b80631b897148116100fd5780631b8971481461021c5780632dd52b08146102915780633dd70bc3146102be578063715018a6146102c85780638da5cb5b146102df5780639426ecba1461032057610140565b806302d5c86f1461014557806305c9714a146101895780630972f9ef146101935780630f144a48146101c1578063147e2e83146101d857610140565b3661014057005b600080fd5b6101716004803603602081101561015b57600080fd5b81019080803590602001909291905050506105e0565b60405180821515815260200191505060405180910390f35b610191610791565b005b6101bf600480360360208110156101a957600080fd5b81019080803590602001909291905050506108e7565b005b3480156101cd57600080fd5b506101d6610afd565b005b610204600480360360208110156101ee57600080fd5b8101908080359060200190929190505050610bf5565b60405180821515815260200191505060405180910390f35b34801561022857600080fd5b506102556004803603602081101561023f57600080fd5b8101908080359060200190929190505050610da6565b604051808473ffffffffffffffffffffffffffffffffffffffff1681526020018381526020018215158152602001935050505060405180910390f35b34801561029d57600080fd5b506102a6610dfd565b60405180821515815260200191505060405180910390f35b6102c6610f60565b005b3480156102d457600080fd5b506102dd6110b7565b005b3480156102eb57600080fd5b506102f4611224565b604051808273ffffffffffffffffffffffffffffffffffffffff16815260200191505060405180910390f35b61032861124d565b005b6103566004803603602081101561034057600080fd5b81019080803590602001909291905050506113a3565b005b34801561036457600080fd5b5061036d6115b9565b6040518082815260200191505060405180910390f35b6103af6004803603602081101561039957600080fd5b81019080803590602001909291905050506115bf565b005b3480156103bd57600080fd5b506103c66117d5565b6040518082815260200191505060405180910390f35b610408600480360360208110156103f257600080fd5b81019080803590602001909291905050506117db565b60405180821515815260200191505060405180910390f35b34801561042c57600080fd5b506104596004803603602081101561044357600080fd5b810190808035906020019092919050505061198c565b604051808473ffffffffffffffffffffffffffffffffffffffff1681526020018381526020018215158152602001935050505060405180910390f35b3480156104a157600080fd5b506104aa6119e3565b6040518082815260200191505060405180910390f35b3480156104cc57600080fd5b506104d56119e9565b60405180821515815260200191505060405180910390f35b3480156104f957600080fd5b5061053c6004803603602081101561051057600080fd5b81019080803573ffffffffffffffffffffffffffffffffffffffff169060200190929190505050611b4c565b005b34801561054a57600080fd5b50610553611d3e565b60405180821515815260200191505060405180910390f35b34801561057757600080fd5b506105a46004803603602081101561058e57600080fd5b8101908080359060200190929190505050611ea0565b604051808473ffffffffffffffffffffffffffffffffffffffff1681526020018381526020018215158152602001935050505060405180910390f35b600080600090505b600654811015610726573373ffffffffffffffffffffffffffffffffffffffff166005600083815260200190815260200160002060000160009054906101000a900473ffffffffffffffffffffffffffffffffffffffff1673ffffffffffffffffffffffffffffffffffffffff161415610719578260056000838152602001908152602001600020600101819055507fb3c542e8e11066978850d9081d2126aed45694d7e7fa3ef322ec17afe760030e3360056000848152602001908152602001600020600101546005600085815260200190815260200160002060020160009054906101000a900460ff16604051808473ffffffffffffffffffffffffffffffffffffffff1681526020018381526020018215158152602001935050505060405180910390a1600191505061078c565b80806001019150506105e8565b507fb3c542e8e11066978850d9081d2126aed45694d7e7fa3ef322ec17afe760030e33600080604051808473ffffffffffffffffffffffffffffffffffffffff1681526020018381526020018215158152602001935050505060405180910390a1600090505b919050565b600f600254106107a057600080fd5b678ac7230489e800003410156107b557600080fd5b60405180606001604052803373ffffffffffffffffffffffffffffffffffffffff168152602001600081526020016000151581525060016000600254815260200190815260200160002060008201518160000160006101000a81548173ffffffffffffffffffffffffffffffffffffffff021916908373ffffffffffffffffffffffffffffffffffffffff1602179055506020820151816001015560408201518160020160006101000a81548160ff0219169083151502179055509050506002600081548092919060010191905055507f6741590263aec7c8cac9d4ded8b5ae1b0e384967cd123222914e13d63250947b33600080604051808473ffffffffffffffffffffffffffffffffffffffff1681526020018381526020018215158152602001935050505060405180910390a1565b600060036000838152602001908152602001600020600101541161090a57600080fd5b600360008281526020019081526020016000206001015434101561092d57600080fd5b600115156003600083815260200190815260200160002060020160009054906101000a900460ff1615151461096157600080fd5b6003600082815260200190815260200160002060000160009054906101000a900473ffffffffffffffffffffffffffffffffffffffff1673ffffffffffffffffffffffffffffffffffffffff166108fc349081150290604051600060405180830381858888f193505050501580156109dd573d6000803e3d6000fd5b50336003600083815260200190815260200160002060000160006101000a81548173ffffffffffffffffffffffffffffffffffffffff021916908373ffffffffffffffffffffffffffffffffffffffff16021790555060006003600083815260200190815260200160002060020160006101000a81548160ff0219169083151502179055507fb578e251b4aa71b09b5b338ec41386a4e1bf4c5f2ea43c519a137171974412c43360036000848152602001908152602001600020600101546003600085815260200190815260200160002060020160009054906101000a900460ff16604051808473ffffffffffffffffffffffffffffffffffffffff1681526020018381526020018215158152602001935050505060405180910390a150565b610b05611ef7565b73ffffffffffffffffffffffffffffffffffffffff16610b23611224565b73ffffffffffffffffffffffffffffffffffffffff1614610bac576040517f08c379a00000000000000000000000000000000000000000000000000000000081526004018080602001828103825260208152602001807f4f776e61626c653a2063616c6c6572206973206e6f7420746865206f776e657281525060200191505060405180910390fd5b3373ffffffffffffffffffffffffffffffffffffffff166108fc479081150290604051600060405180830381858888f19350505050158015610bf2573d6000803e3d6000fd5b50565b600080600090505b600254811015610d3b573373ffffffffffffffffffffffffffffffffffffffff166001600083815260200190815260200160002060000160009054906101000a900473ffffffffffffffffffffffffffffffffffffffff1673ffffffffffffffffffffffffffffffffffffffff161415610d2e578260016000838152602001908152602001600020600101819055507fd258ac3d7e39f027ee95bdf842eb25fbd6fa6b4aabb6112f97f0fd36d7e258d13360016000848152602001908152602001600020600101546001600085815260200190815260200160002060020160009054906101000a900460ff16604051808473ffffffffffffffffffffffffffffffffffffffff1681526020018381526020018215158152602001935050505060405180910390a16001915050610da1565b8080600101915050610bfd565b507fd258ac3d7e39f027ee95bdf842eb25fbd6fa6b4aabb6112f97f0fd36d7e258d133600080604051808473ffffffffffffffffffffffffffffffffffffffff1681526020018381526020018215158152602001935050505060405180910390a1600090505b919050565b60036020528060005260406000206000915090508060000160009054906101000a900473ffffffffffffffffffffffffffffffffffffffff16908060010154908060020160009054906101000a900460ff16905083565b600080600090505b600454811015610f57573373ffffffffffffffffffffffffffffffffffffffff166003600083815260200190815260200160002060000160009054906101000a900473ffffffffffffffffffffffffffffffffffffffff1673ffffffffffffffffffffffffffffffffffffffff161415610f4a5760016003600083815260200190815260200160002060020160006101000a81548160ff0219169083151502179055507fb655d63be0191512be9fc624539c8cba86714f4bb100546c9d5facbbe7e426f03360036000848152602001908152602001600020600101546003600085815260200190815260200160002060020160009054906101000a900460ff16604051808473ffffffffffffffffffffffffffffffffffffffff1681526020018381526020018215158152602001935050505060405180910390a16001915050610f5d565b8080600101915050610e05565b50600090505b90565b6105dc60065410610f7057600080fd5b6703782dace9d90000341015610f8557600080fd5b60405180606001604052803373ffffffffffffffffffffffffffffffffffffffff168152602001600081526020016000151581525060056000600654815260200190815260200160002060008201518160000160006101000a81548173ffffffffffffffffffffffffffffffffffffffff021916908373ffffffffffffffffffffffffffffffffffffffff1602179055506020820151816001015560408201518160020160006101000a81548160ff0219169083151502179055509050506006600081548092919060010191905055507f8d87bde9e95e0b6449e21ff1b1f4db1e49f4a895c3b01feefd71bfed2bdcf7c433600080604051808473ffffffffffffffffffffffffffffffffffffffff1681526020018381526020018215158152602001935050505060405180910390a1565b6110bf611ef7565b73ffffffffffffffffffffffffffffffffffffffff166110dd611224565b73ffffffffffffffffffffffffffffffffffffffff1614611166576040517f08c379a00000000000000000000000000000000000000000000000000000000081526004018080602001828103825260208152602001807f4f776e61626c653a2063616c6c6572206973206e6f7420746865206f776e657281525060200191505060405180910390fd5b600073ffffffffffffffffffffffffffffffffffffffff1660008054906101000a900473ffffffffffffffffffffffffffffffffffffffff1673ffffffffffffffffffffffffffffffffffffffff167f8be0079c531659141344cd1fd0a4f28419497f9722a3daafe3b4186f6b6457e060405160405180910390a360008060006101000a81548173ffffffffffffffffffffffffffffffffffffffff021916908373ffffffffffffffffffffffffffffffffffffffff160217905550565b60008060009054906101000a900473ffffffffffffffffffffffffffffffffffffffff16905090565b60966004541061125c57600080fd5b670de0b6b3a764000034101561127157600080fd5b60405180606001604052803373ffffffffffffffffffffffffffffffffffffffff168152602001600081526020016000151581525060036000600454815260200190815260200160002060008201518160000160006101000a81548173ffffffffffffffffffffffffffffffffffffffff021916908373ffffffffffffffffffffffffffffffffffffffff1602179055506020820151816001015560408201518160020160006101000a81548160ff0219169083151502179055509050506004600081548092919060010191905055507f34246dc2ce4960b670b5774d2f01e1705d7e68a8bfe5aa2e892066a3567aaaf633600080604051808473ffffffffffffffffffffffffffffffffffffffff1681526020018381526020018215158152602001935050505060405180910390a1565b60006005600083815260200190815260200160002060010154116113c657600080fd5b60056000828152602001908152602001600020600101543410156113e957600080fd5b600115156005600083815260200190815260200160002060020160009054906101000a900460ff1615151461141d57600080fd5b6005600082815260200190815260200160002060000160009054906101000a900473ffffffffffffffffffffffffffffffffffffffff1673ffffffffffffffffffffffffffffffffffffffff166108fc349081150290604051600060405180830381858888f19350505050158015611499573d6000803e3d6000fd5b50336005600083815260200190815260200160002060000160006101000a81548173ffffffffffffffffffffffffffffffffffffffff021916908373ffffffffffffffffffffffffffffffffffffffff16021790555060006005600083815260200190815260200160002060020160006101000a81548160ff0219169083151502179055507ff684b37958b35993774a29300c6e06bcb9d0abf7c62e4f736b6e43ea4bddfe863360056000848152602001908152602001600020600101546005600085815260200190815260200160002060020160009054906101000a900460ff16604051808473ffffffffffffffffffffffffffffffffffffffff1681526020018381526020018215158152602001935050505060405180910390a150565b60065481565b60006001600083815260200190815260200160002060010154116115e257600080fd5b600160008281526020019081526020016000206001015434101561160557600080fd5b600115156001600083815260200190815260200160002060020160009054906101000a900460ff1615151461163957600080fd5b6001600082815260200190815260200160002060000160009054906101000a900473ffffffffffffffffffffffffffffffffffffffff1673ffffffffffffffffffffffffffffffffffffffff166108fc349081150290604051600060405180830381858888f193505050501580156116b5573d6000803e3d6000fd5b50336001600083815260200190815260200160002060000160006101000a81548173ffffffffffffffffffffffffffffffffffffffff021916908373ffffffffffffffffffffffffffffffffffffffff16021790555060006001600083815260200190815260200160002060020160006101000a81548160ff0219169083151502179055507fa90b329fe08cab75e8b7bec5b50a61b7ace9732ea4e74b539dcd25218b51f2653360016000848152602001908152602001600020600101546001600085815260200190815260200160002060020160009054906101000a900460ff16604051808473ffffffffffffffffffffffffffffffffffffffff1681526020018381526020018215158152602001935050505060405180910390a150565b60045481565b600080600090505b600454811015611921573373ffffffffffffffffffffffffffffffffffffffff166003600083815260200190815260200160002060000160009054906101000a900473ffffffffffffffffffffffffffffffffffffffff1673ffffffffffffffffffffffffffffffffffffffff161415611914578260036000838152602001908152602001600020600101819055507fa34f370b727ef099181bdeff75fe5839b51f866aafe052ee193a54a99b5919ad3360036000848152602001908152602001600020600101546003600085815260200190815260200160002060020160009054906101000a900460ff16604051808473ffffffffffffffffffffffffffffffffffffffff1681526020018381526020018215158152602001935050505060405180910390a16001915050611987565b80806001019150506117e3565b507fa34f370b727ef099181bdeff75fe5839b51f866aafe052ee193a54a99b5919ad33600080604051808473ffffffffffffffffffffffffffffffffffffffff1681526020018381526020018215158152602001935050505060405180910390a1600090505b919050565b60016020528060005260406000206000915090508060000160009054906101000a900473ffffffffffffffffffffffffffffffffffffffff16908060010154908060020160009054906101000a900460ff16905083565b60025481565b600080600090505b600654811015611b43573373ffffffffffffffffffffffffffffffffffffffff166005600083815260200190815260200160002060000160009054906101000a900473ffffffffffffffffffffffffffffffffffffffff1673ffffffffffffffffffffffffffffffffffffffff161415611b365760016005600083815260200190815260200160002060020160006101000a81548160ff0219169083151502179055507f55883bb7804a4dc476da7d949cee940b44653acdb81146318fbbaf43e6d489963360056000848152602001908152602001600020600101546005600085815260200190815260200160002060020160009054906101000a900460ff16604051808473ffffffffffffffffffffffffffffffffffffffff1681526020018381526020018215158152602001935050505060405180910390a16001915050611b49565b80806001019150506119f1565b50600090505b90565b611b54611ef7565b73ffffffffffffffffffffffffffffffffffffffff16611b72611224565b73ffffffffffffffffffffffffffffffffffffffff1614611bfb576040517f08c379a00000000000000000000000000000000000000000000000000000000081526004018080602001828103825260208152602001807f4f776e61626c653a2063616c6c6572206973206e6f7420746865206f776e657281525060200191505060405180910390fd5b600073ffffffffffffffffffffffffffffffffffffffff168173ffffffffffffffffffffffffffffffffffffffff161415611c81576040517f08c379a0000000000000000000000000000000000000000000000000000000008152600401808060200182810382526026815260200180611f006026913960400191505060405180910390fd5b8073ffffffffffffffffffffffffffffffffffffffff1660008054906101000a900473ffffffffffffffffffffffffffffffffffffffff1673ffffffffffffffffffffffffffffffffffffffff167f8be0079c531659141344cd1fd0a4f28419497f9722a3daafe3b4186f6b6457e060405160405180910390a3806000806101000a81548173ffffffffffffffffffffffffffffffffffffffff021916908373ffffffffffffffffffffffffffffffffffffffff16021790555050565b600080600090505b600254811015611e97573373ffffffffffffffffffffffffffffffffffffffff166001600083815260200190815260200160002060000160009054906101000a900473ffffffffffffffffffffffffffffffffffffffff1673ffffffffffffffffffffffffffffffffffffffff161415611e8a57600180600083815260200190815260200160002060020160006101000a81548160ff0219169083151502179055507fd2c4384f4f0438d3602c8caf3088da659ba5c23af0e40dbe7fabbc6be99934573360016000848152602001908152602001600020600101546001600085815260200190815260200160002060020160009054906101000a900460ff16604051808473ffffffffffffffffffffffffffffffffffffffff1681526020018381526020018215158152602001935050505060405180910390a16001915050611e9d565b8080600101915050611d46565b50600090505b90565b60056020528060005260406000206000915090508060000160009054906101000a900473ffffffffffffffffffffffffffffffffffffffff16908060010154908060020160009054906101000a900460ff16905083565b60003390509056fe4f776e61626c653a206e6577206f776e657220697320746865207a65726f2061646472657373a26469706673582212205efe51e398d96f7647b40cd36d69ae00485e7b98deb7873d76919ba3e8353b0664736f6c634300060c0033",
  "immutableReferences": {},
  "source": "// SPDX-License-Identifier: MIT\npragma solidity >=0.4.21 <0.7.0;\n\nimport \"@openzeppelin/contracts/access/Ownable.sol\";\n\ncontract Membership is Ownable{\n    // gold card owner : {address: owner, uint: price}\n    // // if price == 0, owner is not going to sell \n    // // if price != 0, owner is going to sell\n    receive() payable external {\n    }\n\n    struct Gold {\n        address payable owner;\n        uint price;\n        bool sell_approve;\n    }\n    // gold card owner list\n    mapping (uint => Gold) public gold_list;\n    // gold card owner account\n    uint public gold_owner_count = 0;\n    // gold card default price\n    uint constant gold_price = 1e19;\n    // gold card max amount\n    uint constant gold_max = 15;\n    event GoldPurchased (\n        address payable owner,\n        uint price,\n        bool sell_approve\n    );\n    event GoldSell (\n        address payable owner,\n        uint price,\n        bool sell_approve\n    );\n    event GoldApprove (\n        address payable owner,\n        uint price,\n        bool sell_approve\n    );\n    event GoldBought (\n        address payable owner,\n        uint price,\n        bool sell_approve\n    );\n\n    struct Silver {\n        address payable owner;\n        uint price;\n        bool sell_approve;\n    }\n    // silver card owner list\n    mapping (uint => Silver) public silver_list;\n    // silver card owner account\n    uint public silver_owner_count = 0;\n    // silver card default price\n    uint constant silver_price = 1e18;\n    // silver card max amount\n    uint constant silver_max = 150;\n    event SilverPurchased (\n        address payable owner,\n        uint price,\n        bool sell_approve\n    );\n    event SilverSell (\n        address payable owner,\n        uint price,\n        bool sell_approve\n    );\n    event SilverApprove (\n        address payable owner,\n        uint price,\n        bool sell_approve\n    );\n    event SilverBought (\n        address payable owner,\n        uint price,\n        bool sell_approve\n    );    \n\n    struct Bronze {\n        address payable owner;\n        uint price;\n        bool sell_approve;\n    }\n    // bronze card owner list\n    mapping (uint => Bronze) public bronze_list;\n    // bronze card owner account\n    uint public bronze_owner_count = 0;\n    // bronze card default price\n    uint constant bronze_price = 25e16;\n    // bronze card max amount\n    uint constant bronze_max = 1500;\n    event BronzePurchased (\n        address payable owner,\n        uint price,\n        bool sell_approve\n    );\n    event BronzeSell (\n        address payable owner,\n        uint price,\n        bool sell_approve\n    );\n    event BronzeApprove (\n        address payable owner,\n        uint price,\n        bool sell_approve\n    );\n    event BronzeBought (\n        address payable owner,\n        uint price,\n        bool sell_approve\n    );        \n    // gold card buy (MU -> user)\n    function gold_buy() public payable {\n        // require : original card is remaining.\n        require( gold_owner_count < gold_max );\n        // require : ETH is greater than gold card price\n        require( msg.value >= gold_price );\n        // register new gold owner\n        gold_list[gold_owner_count] = Gold(msg.sender, 0, false);\n        gold_owner_count++;\n        emit GoldPurchased(msg.sender, 0, false);\n    }\n    // are going to sell gold card\n    // check if the function caller is gold card owner \n    function gold_sell(uint _price) public payable returns(bool) {\n        for (uint i = 0 ; i < gold_owner_count ; i++) {\n            if (gold_list[i].owner == msg.sender) {\n                gold_list[i].price = _price;\n                emit GoldSell(msg.sender, gold_list[i].price, gold_list[i].sell_approve);\n                return true;\n            }\n        }\n        emit GoldSell(msg.sender, 0, false);\n        return false;\n    }\n    // approve gold card buy request\n    function gold_approve () public returns(bool) {\n        for (uint i = 0 ; i < gold_owner_count ; i++) {\n            if (gold_list[i].owner == msg.sender) {\n                gold_list[i].sell_approve = true;\n                emit GoldApprove(msg.sender, gold_list[i].price, gold_list[i].sell_approve);\n                return true;\n            }\n        }\n        return false;\n    }\n    // gold card buy (user -> user)\n    function gold_request_buy (uint card_id) public payable {\n        // require: card is placed on the sell list\n        require( gold_list[card_id].price > 0 );\n        // require: request buy is greater than minimum price\n        require( msg.value >= gold_list[card_id].price );\n        // require : check if card owner approves the request\n        require( gold_list[card_id].sell_approve == true );\n        // transfer ETH from new owner to old owner\n        gold_list[card_id].owner.transfer(msg.value);\n        // move the card ownership from old owner to new owner\n        gold_list[card_id].owner = msg.sender;\n        gold_list[card_id].sell_approve = false;\n        emit GoldBought(msg.sender, gold_list[card_id].price, gold_list[card_id].sell_approve);\n    }\n    //////////////////////////////////////////////\n    //////////        silver          ////////////\n    //////////////////////////////////////////////\n    // silver card buy (MU -> user)\n    function silver_buy() public payable {\n        // require : original card is remaining.\n        require( silver_owner_count < silver_max );\n        // require : ETH is greater than silver card price\n        require( msg.value >= silver_price );\n        // register new silver owner\n        silver_list[silver_owner_count] = Silver(msg.sender, 0, false);\n        silver_owner_count++;\n        emit SilverPurchased(msg.sender, 0, false);\n    }\n    // are going to sell silver card\n    // check if the function caller is silver card owner \n    function silver_sell(uint _price) public payable returns(bool) {\n        for (uint i = 0 ; i < silver_owner_count ; i++) {\n            if (silver_list[i].owner == msg.sender) {\n                silver_list[i].price = _price;\n                emit SilverSell(msg.sender, silver_list[i].price, silver_list[i].sell_approve);\n                return true;\n            }\n        }\n        emit SilverSell(msg.sender, 0, false);\n        return false;\n    }\n    // approve silver card buy request\n    function silver_approve () public returns(bool) {\n        for (uint i = 0 ; i < silver_owner_count ; i++) {\n            if (silver_list[i].owner == msg.sender) {\n                silver_list[i].sell_approve = true;\n                emit SilverApprove(msg.sender, silver_list[i].price, silver_list[i].sell_approve);\n                return true;\n            }\n        }\n        return false;\n    }\n    // silver card buy (user -> user)\n    function silver_request_buy (uint card_id) public payable {\n        // require: card is placed on the sell list\n        require( silver_list[card_id].price > 0 );\n        // require: request buy is greater than minimum price\n        require( msg.value >= silver_list[card_id].price );\n        // require : check if card owner approves the request\n        require( silver_list[card_id].sell_approve == true );\n        // transfer ETH from new owner to old owner\n        silver_list[card_id].owner.transfer(msg.value);\n        // move the card ownership from old owner to new owner\n        silver_list[card_id].owner = msg.sender;\n        silver_list[card_id].sell_approve = false;\n        emit SilverBought(msg.sender, silver_list[card_id].price, silver_list[card_id].sell_approve);\n    }    \n    //////////////////////////////////////////////\n    //////////        Bronze          ////////////\n    //////////////////////////////////////////////\n    // bronze card buy (MU -> user)\n    function bronze_buy() public payable {\n        // require : original card is remaining.\n        require( bronze_owner_count < bronze_max );\n        // require : ETH is greater than bronze card price\n        require( msg.value >= bronze_price );\n        // register new bronze owner\n        bronze_list[bronze_owner_count] = Bronze(msg.sender, 0, false);\n        bronze_owner_count++;\n        emit BronzePurchased(msg.sender, 0, false);\n    }\n    // are going to sell bronze card\n    // check if the function caller is bronze card owner \n    function bronze_sell(uint _price) public payable returns(bool) {\n        for (uint i = 0 ; i < bronze_owner_count ; i++) {\n            if (bronze_list[i].owner == msg.sender) {\n                bronze_list[i].price = _price;\n                emit BronzeSell(msg.sender, bronze_list[i].price, bronze_list[i].sell_approve);\n                return true;    \n            }\n        }\n        emit BronzeSell(msg.sender, 0, false);\n        return false;\n    }\n    // approve bronze card buy request\n    function bronze_approve () public returns(bool) {\n        for (uint i = 0 ; i < bronze_owner_count ; i++) {\n            if (bronze_list[i].owner == msg.sender) {\n                bronze_list[i].sell_approve = true;\n                emit BronzeApprove(msg.sender, bronze_list[i].price, bronze_list[i].sell_approve);\n                return true;\n            }\n        }\n        return false;\n    }\n    // bronze card buy (user -> user)\n    function bronze_request_buy (uint card_id) public payable {\n        // require: card is placed on the sell list\n        require( bronze_list[card_id].price > 0 );\n        // require: request buy is greater than minimum price\n        require( msg.value >= bronze_list[card_id].price );\n        // require : check if card owner approves the request\n        require( bronze_list[card_id].sell_approve == true );\n        // transfer ETH from new owner to old owner\n        bronze_list[card_id].owner.transfer(msg.value);\n        // move the card ownership from old owner to new owner\n        bronze_list[card_id].owner = msg.sender;\n        bronze_list[card_id].sell_approve = false;\n        emit BronzeBought(msg.sender, bronze_list[card_id].price, bronze_list[card_id].sell_approve);\n    }    \n\n    function reclaimETH() external onlyOwner{\n        msg.sender.transfer(address(this).balance);\n    }\n}",
  "sourcePath": "/home/oncemore/Blockchain Work/membership/contracts/Membership.sol",
  "compiler": {
    "name": "solc",
    "version": "0.6.12+commit.27d51765.Emscripten.clang"
  },
  "schemaVersion": "3.3.4",
  "updatedAt": "2021-05-06T12:37:25.763Z",
  "networkType": "ethereum",
  "devdoc": {
    "kind": "dev",
    "methods": {
      "owner()": {
        "details": "Returns the address of the current owner."
      },
      "renounceOwnership()": {
        "details": "Leaves the contract without owner. It will not be possible to call `onlyOwner` functions anymore. Can only be called by the current owner. NOTE: Renouncing ownership will leave the contract without an owner, thereby removing any functionality that is only available to the owner."
      },
      "transferOwnership(address)": {
        "details": "Transfers ownership of the contract to a new account (`newOwner`). Can only be called by the current owner."
      }
    },
    "version": 1
  },
  "userdoc": {
    "kind": "user",
    "methods": {},
    "version": 1
  }
}