{
  "contractName": "Membership_old",
  "abi": [
    {
      "constant": true,
      "inputs": [
        {
          "internalType": "uint256",
          "name": "",
          "type": "uint256"
        }
      ],
      "name": "bronze_owners",
      "outputs": [
        {
          "internalType": "address",
          "name": "",
          "type": "address"
        }
      ],
      "payable": false,
      "stateMutability": "view",
      "type": "function"
    },
    {
      "constant": true,
      "inputs": [
        {
          "internalType": "uint256",
          "name": "",
          "type": "uint256"
        }
      ],
      "name": "gold_owners",
      "outputs": [
        {
          "internalType": "address",
          "name": "",
          "type": "address"
        }
      ],
      "payable": false,
      "stateMutability": "view",
      "type": "function"
    },
    {
      "constant": true,
      "inputs": [
        {
          "internalType": "uint256",
          "name": "",
          "type": "uint256"
        }
      ],
      "name": "silver_owners",
      "outputs": [
        {
          "internalType": "address",
          "name": "",
          "type": "address"
        }
      ],
      "payable": false,
      "stateMutability": "view",
      "type": "function"
    },
    {
      "constant": true,
      "inputs": [],
      "name": "total_balance",
      "outputs": [
        {
          "internalType": "uint256",
          "name": "",
          "type": "uint256"
        }
      ],
      "payable": false,
      "stateMutability": "view",
      "type": "function"
    },
    {
      "constant": false,
      "inputs": [],
      "name": "invest",
      "outputs": [],
      "payable": true,
      "stateMutability": "payable",
      "type": "function"
    },
    {
      "constant": true,
      "inputs": [],
      "name": "balanceOf",
      "outputs": [
        {
          "internalType": "uint256",
          "name": "",
          "type": "uint256"
        }
      ],
      "payable": false,
      "stateMutability": "view",
      "type": "function"
    },
    {
      "constant": false,
      "inputs": [],
      "name": "purchase_gold",
      "outputs": [],
      "payable": true,
      "stateMutability": "payable",
      "type": "function"
    },
    {
      "constant": false,
      "inputs": [
        {
          "internalType": "address payable",
          "name": "_seller",
          "type": "address"
        }
      ],
      "name": "buy_gold",
      "outputs": [],
      "payable": true,
      "stateMutability": "payable",
      "type": "function"
    },
    {
      "constant": true,
      "inputs": [],
      "name": "get_gold_owner_amount",
      "outputs": [
        {
          "internalType": "uint256",
          "name": "",
          "type": "uint256"
        }
      ],
      "payable": false,
      "stateMutability": "view",
      "type": "function"
    },
    {
      "constant": false,
      "inputs": [],
      "name": "purchase_silver",
      "outputs": [],
      "payable": true,
      "stateMutability": "payable",
      "type": "function"
    },
    {
      "constant": false,
      "inputs": [
        {
          "internalType": "address payable",
          "name": "_seller",
          "type": "address"
        }
      ],
      "name": "buy_silver",
      "outputs": [],
      "payable": true,
      "stateMutability": "payable",
      "type": "function"
    },
    {
      "constant": true,
      "inputs": [],
      "name": "get_silver_owner_amount",
      "outputs": [
        {
          "internalType": "uint256",
          "name": "",
          "type": "uint256"
        }
      ],
      "payable": false,
      "stateMutability": "view",
      "type": "function"
    },
    {
      "constant": false,
      "inputs": [],
      "name": "purchase_bronze",
      "outputs": [],
      "payable": true,
      "stateMutability": "payable",
      "type": "function"
    },
    {
      "constant": false,
      "inputs": [
        {
          "internalType": "address payable",
          "name": "_seller",
          "type": "address"
        }
      ],
      "name": "buy_bronze",
      "outputs": [],
      "payable": true,
      "stateMutability": "payable",
      "type": "function"
    },
    {
      "constant": true,
      "inputs": [],
      "name": "get_bronze_owner_amount",
      "outputs": [
        {
          "internalType": "uint256",
          "name": "",
          "type": "uint256"
        }
      ],
      "payable": false,
      "stateMutability": "view",
      "type": "function"
    }
  ],
  "bytecode": "0x60806040524760035534801561001457600080fd5b50610ae8806100246000396000f3fe6080604052600436106100e85760003560e01c8063b078bc861161008a578063e080054c11610059578063e080054c14610401578063e8b5e51f1461040b578063eac9684a14610415578063fcb03d0c1461041f576100e8565b8063b078bc86146102b5578063b0e33ca214610330578063cdfba4911461035b578063d2ff791f146103d6576100e8565b8063722713f7116100c6578063722713f7146101875780637fee43e7146101b257806395b94ee01461022d5780639e1f630b14610271576100e8565b8063549340ff146100ed578063604d145714610131578063633853731461015c575b600080fd5b61012f6004803603602081101561010357600080fd5b81019080803573ffffffffffffffffffffffffffffffffffffffff169060200190929190505050610429565b005b34801561013d57600080fd5b5061014661056b565b6040518082815260200191505060405180910390f35b34801561016857600080fd5b50610171610577565b6040518082815260200191505060405180910390f35b34801561019357600080fd5b5061019c610584565b6040518082815260200191505060405180910390f35b3480156101be57600080fd5b506101eb600480360360208110156101d557600080fd5b810190808035906020019092919050505061058c565b604051808273ffffffffffffffffffffffffffffffffffffffff1673ffffffffffffffffffffffffffffffffffffffff16815260200191505060405180910390f35b61026f6004803603602081101561024357600080fd5b81019080803573ffffffffffffffffffffffffffffffffffffffff1690602001909291905050506105c8565b005b6102b36004803603602081101561028757600080fd5b81019080803573ffffffffffffffffffffffffffffffffffffffff16906020019092919050505061070a565b005b3480156102c157600080fd5b506102ee600480360360208110156102d857600080fd5b810190808035906020019092919050505061084c565b604051808273ffffffffffffffffffffffffffffffffffffffff1673ffffffffffffffffffffffffffffffffffffffff16815260200191505060405180910390f35b34801561033c57600080fd5b50610345610888565b6040518082815260200191505060405180910390f35b34801561036757600080fd5b506103946004803603602081101561037e57600080fd5b8101908080359060200190929190505050610895565b604051808273ffffffffffffffffffffffffffffffffffffffff1673ffffffffffffffffffffffffffffffffffffffff16815260200191505060405180910390f35b3480156103e257600080fd5b506103eb6108d1565b6040518082815260200191505060405180910390f35b6104096108d7565b005b610413610974565b005b61041d610976565b005b610427610a14565b005b670de0b6b3a764000034101561043e57600080fd5b8073ffffffffffffffffffffffffffffffffffffffff166108fc349081150290604051600060405180830381858888f19350505050158015610484573d6000803e3d6000fd5b5060008090505b600180549050811015610567578173ffffffffffffffffffffffffffffffffffffffff16600182815481106104bc57fe5b9060005260206000200160009054906101000a900473ffffffffffffffffffffffffffffffffffffffff1673ffffffffffffffffffffffffffffffffffffffff16141561055a57336001828154811061051157fe5b9060005260206000200160006101000a81548173ffffffffffffffffffffffffffffffffffffffff021916908373ffffffffffffffffffffffffffffffffffffffff1602179055505b808060010191505061048b565b5050565b60008080549050905090565b6000600180549050905090565b600047905090565b6002818154811061059957fe5b906000526020600020016000915054906101000a900473ffffffffffffffffffffffffffffffffffffffff1681565b678ac7230489e800003410156105dd57600080fd5b8073ffffffffffffffffffffffffffffffffffffffff166108fc349081150290604051600060405180830381858888f19350505050158015610623573d6000803e3d6000fd5b5060008090505b600080549050811015610706578173ffffffffffffffffffffffffffffffffffffffff166000828154811061065b57fe5b9060005260206000200160009054906101000a900473ffffffffffffffffffffffffffffffffffffffff1673ffffffffffffffffffffffffffffffffffffffff1614156106f95733600082815481106106b057fe5b9060005260206000200160006101000a81548173ffffffffffffffffffffffffffffffffffffffff021916908373ffffffffffffffffffffffffffffffffffffffff1602179055505b808060010191505061062a565b5050565b6703782dace9d9000034101561071f57600080fd5b8073ffffffffffffffffffffffffffffffffffffffff166108fc349081150290604051600060405180830381858888f19350505050158015610765573d6000803e3d6000fd5b5060008090505b600280549050811015610848578173ffffffffffffffffffffffffffffffffffffffff166002828154811061079d57fe5b9060005260206000200160009054906101000a900473ffffffffffffffffffffffffffffffffffffffff1673ffffffffffffffffffffffffffffffffffffffff16141561083b5733600282815481106107f257fe5b9060005260206000200160006101000a81548173ffffffffffffffffffffffffffffffffffffffff021916908373ffffffffffffffffffffffffffffffffffffffff1602179055505b808060010191505061076c565b5050565b6000818154811061085957fe5b906000526020600020016000915054906101000a900473ffffffffffffffffffffffffffffffffffffffff1681565b6000600280549050905090565b600181815481106108a257fe5b906000526020600020016000915054906101000a900473ffffffffffffffffffffffffffffffffffffffff1681565b60035481565b600080805490509050600081600f039050600081116108f557600080fd5b678ac7230489e8000034101561090a57600080fd5b60003390806001815401808255809150509060018203906000526020600020016000909192909190916101000a81548173ffffffffffffffffffffffffffffffffffffffff021916908373ffffffffffffffffffffffffffffffffffffffff160217905550505050565b565b6000600180549050905060008160960390506000811161099557600080fd5b670de0b6b3a76400003410156109aa57600080fd5b60013390806001815401808255809150509060018203906000526020600020016000909192909190916101000a81548173ffffffffffffffffffffffffffffffffffffffff021916908373ffffffffffffffffffffffffffffffffffffffff160217905550505050565b600060028054905090506000816105dc03905060008111610a3457600080fd5b6703782dace9d90000341015610a4957600080fd5b60023390806001815401808255809150509060018203906000526020600020016000909192909190916101000a81548173ffffffffffffffffffffffffffffffffffffffff021916908373ffffffffffffffffffffffffffffffffffffffff16021790555050505056fea265627a7a72315820b5066246a0af4f4a5dd9254187369666259d54dadb2d95f2693f88952cce3ce364736f6c63430005100032",
  "source": "// SPDX-License-Identifier: MIT\npragma solidity >=0.4.22 <0.9.0;\n\ncontract Membership_old {\n    uint constant gold_max = 15;\n    address[] public gold_owners;\n    uint constant gold_price = 10000000000000000000;\n\n    // define silver card\n    uint constant silver_max = 150;\n    address[] public silver_owners;\n    uint constant silver_price = 1000000000000000000;\n\n    // define bronze card\n    uint constant bronze_max = 1500;\n    address[] public bronze_owners;\n    uint constant bronze_price = 250000000000000000;\n    // smart contract balance\n    uint public total_balance = address(this).balance;\n    // function implicitly deposit Ether to this smart contract\n    function invest() external payable {\n        \n    }\n    function balanceOf() external view returns(uint) {\n        return address(this).balance;\n    }\n    // function purchase original gold card\n    function purchase_gold() public payable {\n        uint sold_gold = gold_owners.length;\n        uint remaining_gold = gold_max - sold_gold;\n        // require gold card is available to purchase\n        require(remaining_gold > 0);\n        // require transaction has enough balance\n        require(msg.value >= gold_price);\n        // // register purchaseOwner into the gold owner list\n        gold_owners.push(msg.sender);\n        \n    }\n    // function buy gold card from other owner\n    function buy_gold(address payable _seller) public payable {\n        // require transaction has enough eth\n        require(msg.value >= gold_price);\n        // transfer ether from new owner to old owner\n        _seller.transfer(msg.value);\n        // replace the new owner with old owner\n        for (uint i = 0 ; i < gold_owners.length ; i++) {\n            if (gold_owners[i] == _seller) {\n                gold_owners[i] = msg.sender;\n            }\n        }\n    }\n    // function get sold gold card amount\n    function get_gold_owner_amount() public view returns(uint) {\n        return gold_owners.length;\n    }\n\n    // function purchase original silver card\n    function purchase_silver() public payable{\n        uint sold_silver = silver_owners.length;\n        uint remaining_silver = silver_max - sold_silver;\n        // require silver card is available to purchase\n        require(remaining_silver > 0);\n        // require transaction has enough balance\n        require(msg.value >= silver_price);\n        // register purchaseOwner into the silver owner list\n        silver_owners.push(msg.sender);\n        \n    }\n    // function buy silver card from other owner\n    function buy_silver(address payable _seller) public payable {\n        // require transaction has enough eth\n        require(msg.value >= silver_price);\n        // transfer ether from new owner to old owner\n        _seller.transfer(msg.value);\n        // replace the new owner with old owner\n        for (uint i = 0 ; i < silver_owners.length ; i++) {\n            if (silver_owners[i] == _seller) {\n                silver_owners[i] = msg.sender;\n            }\n        }\n    }\n    // function get sold silver card amount\n    function get_silver_owner_amount() public view returns(uint) {\n        return silver_owners.length;\n    }\n\n    // function purchase original bronze card\n    function purchase_bronze() public payable{\n        uint sold_bronze = bronze_owners.length;\n        uint remaining_bronze = bronze_max - sold_bronze;\n        // require bronze card is available to purchase\n        require(remaining_bronze > 0);\n        // require transaction has enough balance\n        require(msg.value >= bronze_price);\n        // register purchaseOwner into the bronze owner list\n        bronze_owners.push(msg.sender);\n        \n    }\n    // function buy bronze card from other owner\n    function buy_bronze(address payable _seller) public payable {\n        // require transaction has enough eth\n        require(msg.value >= bronze_price);\n        // transfer ether from new owner to old owner\n        _seller.transfer(msg.value);\n        // replace the new owner with old owner\n        for (uint i = 0 ; i < bronze_owners.length ; i++) {\n            if (bronze_owners[i] == _seller) {\n                bronze_owners[i] = msg.sender;\n            }\n        }\n    }\n    // function get sold bronze card amount\n    function get_bronze_owner_amount() public view returns(uint) {\n        return bronze_owners.length;\n    }\n}\n",
  "sourcePath": "/home/oncemore/Blockchain Work/membership/contracts/Membership.old.sol",
  "compiler": {
    "name": "solc",
    "version": "0.5.16+commit.9c3226ce.Emscripten.clang"
  },
  "schemaVersion": "3.3.4",
  "updatedAt": "2021-04-30T21:54:10.260Z",
  "devdoc": {
    "methods": {}
  },
  "userdoc": {
    "methods": {}
  }
}