{
  "contractName": "Membership",
  "abi": [
    {
      "constant": true,
      "inputs": [
        {
          "internalType": "uint256",
          "name": "",
          "type": "uint256"
        }
      ],
      "name": "gold_owners",
      "outputs": [
        {
          "internalType": "address",
          "name": "",
          "type": "address"
        }
      ],
      "payable": false,
      "stateMutability": "view",
      "type": "function"
    },
    {
      "constant": true,
      "inputs": [],
      "name": "total_balance",
      "outputs": [
        {
          "internalType": "uint256",
          "name": "",
          "type": "uint256"
        }
      ],
      "payable": false,
      "stateMutability": "view",
      "type": "function"
    },
    {
      "constant": false,
      "inputs": [],
      "name": "invest",
      "outputs": [],
      "payable": true,
      "stateMutability": "payable",
      "type": "function"
    },
    {
      "constant": true,
      "inputs": [],
      "name": "balanceOf",
      "outputs": [
        {
          "internalType": "uint256",
          "name": "",
          "type": "uint256"
        }
      ],
      "payable": false,
      "stateMutability": "view",
      "type": "function"
    },
    {
      "constant": false,
      "inputs": [],
      "name": "purchase_gold",
      "outputs": [],
      "payable": true,
      "stateMutability": "payable",
      "type": "function"
    },
    {
      "constant": false,
      "inputs": [
        {
          "internalType": "address payable",
          "name": "_seller",
          "type": "address"
        }
      ],
      "name": "buy_gold",
      "outputs": [],
      "payable": true,
      "stateMutability": "payable",
      "type": "function"
    },
    {
      "constant": true,
      "inputs": [],
      "name": "get_gold_owner_amount",
      "outputs": [
        {
          "internalType": "uint256",
          "name": "",
          "type": "uint256"
        }
      ],
      "payable": false,
      "stateMutability": "view",
      "type": "function"
    },
    {
      "constant": false,
      "inputs": [],
      "name": "purchase_silver",
      "outputs": [],
      "payable": true,
      "stateMutability": "payable",
      "type": "function"
    },
    {
      "constant": false,
      "inputs": [
        {
          "internalType": "address payable",
          "name": "_seller",
          "type": "address"
        }
      ],
      "name": "buy_silver",
      "outputs": [],
      "payable": true,
      "stateMutability": "payable",
      "type": "function"
    },
    {
      "constant": true,
      "inputs": [],
      "name": "get_silver_owner_amount",
      "outputs": [
        {
          "internalType": "uint256",
          "name": "",
          "type": "uint256"
        }
      ],
      "payable": false,
      "stateMutability": "view",
      "type": "function"
    },
    {
      "constant": false,
      "inputs": [],
      "name": "purchase_bronze",
      "outputs": [],
      "payable": true,
      "stateMutability": "payable",
      "type": "function"
    },
    {
      "constant": false,
      "inputs": [
        {
          "internalType": "address payable",
          "name": "_seller",
          "type": "address"
        }
      ],
      "name": "buy_bronze",
      "outputs": [],
      "payable": true,
      "stateMutability": "payable",
      "type": "function"
    },
    {
      "constant": true,
      "inputs": [],
      "name": "get_bronze_owner_amount",
      "outputs": [
        {
          "internalType": "uint256",
          "name": "",
          "type": "uint256"
        }
      ],
      "payable": false,
      "stateMutability": "view",
      "type": "function"
    }
  ],
  "bytecode": "0x60806040524760035534801561001457600080fd5b50610954806100246000396000f3fe6080604052600436106100c25760003560e01c8063b078bc861161007f578063e080054c11610059578063e080054c146102e5578063e8b5e51f146102ef578063eac9684a146102f9578063fcb03d0c14610303576100c2565b8063b078bc8614610214578063b0e33ca21461028f578063d2ff791f146102ba576100c2565b8063549340ff146100c7578063604d14571461010b5780636338537314610136578063722713f71461016157806395b94ee01461018c5780639e1f630b146101d0575b600080fd5b610109600480360360208110156100dd57600080fd5b81019080803573ffffffffffffffffffffffffffffffffffffffff16906020019092919050505061030d565b005b34801561011757600080fd5b5061012061044f565b6040518082815260200191505060405180910390f35b34801561014257600080fd5b5061014b61045b565b6040518082815260200191505060405180910390f35b34801561016d57600080fd5b50610176610468565b6040518082815260200191505060405180910390f35b6101ce600480360360208110156101a257600080fd5b81019080803573ffffffffffffffffffffffffffffffffffffffff169060200190929190505050610470565b005b610212600480360360208110156101e657600080fd5b81019080803573ffffffffffffffffffffffffffffffffffffffff1690602001909291905050506105b2565b005b34801561022057600080fd5b5061024d6004803603602081101561023757600080fd5b81019080803590602001909291905050506106f4565b604051808273ffffffffffffffffffffffffffffffffffffffff1673ffffffffffffffffffffffffffffffffffffffff16815260200191505060405180910390f35b34801561029b57600080fd5b506102a4610730565b6040518082815260200191505060405180910390f35b3480156102c657600080fd5b506102cf61073d565b6040518082815260200191505060405180910390f35b6102ed610743565b005b6102f76107e0565b005b6103016107e2565b005b61030b610880565b005b670de0b6b3a764000034101561032257600080fd5b8073ffffffffffffffffffffffffffffffffffffffff166108fc349081150290604051600060405180830381858888f19350505050158015610368573d6000803e3d6000fd5b5060008090505b60018054905081101561044b578173ffffffffffffffffffffffffffffffffffffffff16600182815481106103a057fe5b9060005260206000200160009054906101000a900473ffffffffffffffffffffffffffffffffffffffff1673ffffffffffffffffffffffffffffffffffffffff16141561043e5733600182815481106103f557fe5b9060005260206000200160006101000a81548173ffffffffffffffffffffffffffffffffffffffff021916908373ffffffffffffffffffffffffffffffffffffffff1602179055505b808060010191505061036f565b5050565b60008080549050905090565b6000600180549050905090565b600047905090565b678ac7230489e8000034101561048557600080fd5b8073ffffffffffffffffffffffffffffffffffffffff166108fc349081150290604051600060405180830381858888f193505050501580156104cb573d6000803e3d6000fd5b5060008090505b6000805490508110156105ae578173ffffffffffffffffffffffffffffffffffffffff166000828154811061050357fe5b9060005260206000200160009054906101000a900473ffffffffffffffffffffffffffffffffffffffff1673ffffffffffffffffffffffffffffffffffffffff1614156105a157336000828154811061055857fe5b9060005260206000200160006101000a81548173ffffffffffffffffffffffffffffffffffffffff021916908373ffffffffffffffffffffffffffffffffffffffff1602179055505b80806001019150506104d2565b5050565b6703782dace9d900003410156105c757600080fd5b8073ffffffffffffffffffffffffffffffffffffffff166108fc349081150290604051600060405180830381858888f1935050505015801561060d573d6000803e3d6000fd5b5060008090505b6002805490508110156106f0578173ffffffffffffffffffffffffffffffffffffffff166002828154811061064557fe5b9060005260206000200160009054906101000a900473ffffffffffffffffffffffffffffffffffffffff1673ffffffffffffffffffffffffffffffffffffffff1614156106e357336002828154811061069a57fe5b9060005260206000200160006101000a81548173ffffffffffffffffffffffffffffffffffffffff021916908373ffffffffffffffffffffffffffffffffffffffff1602179055505b8080600101915050610614565b5050565b6000818154811061070157fe5b906000526020600020016000915054906101000a900473ffffffffffffffffffffffffffffffffffffffff1681565b6000600280549050905090565b60035481565b600080805490509050600081600f0390506000811161076157600080fd5b678ac7230489e8000034101561077657600080fd5b60003390806001815401808255809150509060018203906000526020600020016000909192909190916101000a81548173ffffffffffffffffffffffffffffffffffffffff021916908373ffffffffffffffffffffffffffffffffffffffff160217905550505050565b565b6000600180549050905060008160960390506000811161080157600080fd5b670de0b6b3a764000034101561081657600080fd5b60013390806001815401808255809150509060018203906000526020600020016000909192909190916101000a81548173ffffffffffffffffffffffffffffffffffffffff021916908373ffffffffffffffffffffffffffffffffffffffff160217905550505050565b600060028054905090506000816105dc039050600081116108a057600080fd5b6703782dace9d900003410156108b557600080fd5b60023390806001815401808255809150509060018203906000526020600020016000909192909190916101000a81548173ffffffffffffffffffffffffffffffffffffffff021916908373ffffffffffffffffffffffffffffffffffffffff16021790555050505056fea265627a7a723158201149a03517645280e0abf88c2e45be0c411af205a9dc52e05e0c111fd814345064736f6c63430005100032",
  "source": "// SPDX-License-Identifier: MIT\npragma solidity >=0.4.22 <0.9.0;\n\ncontract Membership {\n    uint constant gold_max = 15;\n    address[] public gold_owners;\n    uint constant gold_price = 10000000000000000000;\n\n    // define silver card\n    uint constant silver_max = 150;\n    address[] silver_owners;\n    uint constant silver_price = 1000000000000000000;\n\n    // define bronze card\n    uint constant bronze_max = 1500;\n    address[] bronze_owners;\n    uint constant bronze_price = 250000000000000000;\n    // smart contract balance\n    uint public total_balance = address(this).balance;\n    // function implicitly deposit Ether to this smart contract\n    function invest() external payable {\n        \n    }\n    function balanceOf() external view returns(uint) {\n        return address(this).balance;\n    }\n    // function purchase original gold card\n    function purchase_gold() public payable {\n        uint sold_gold = gold_owners.length;\n        uint remaining_gold = gold_max - sold_gold;\n        // require gold card is available to purchase\n        require(remaining_gold > 0);\n        // require transaction has enough balance\n        require(msg.value >= gold_price);\n        // // register purchaseOwner into the gold owner list\n        gold_owners.push(msg.sender);\n        \n    }\n    // function buy gold card from other owner\n    function buy_gold(address payable _seller) public payable {\n        // require transaction has enough eth\n        require(msg.value >= gold_price);\n        // transfer ether from new owner to old owner\n        _seller.transfer(msg.value);\n        // replace the new owner with old owner\n        for (uint i = 0 ; i < gold_owners.length ; i++) {\n            if (gold_owners[i] == _seller) {\n                gold_owners[i] = msg.sender;\n            }\n        }\n    }\n    // function get sold gold card amount\n    function get_gold_owner_amount() public view returns(uint) {\n        return gold_owners.length;\n    }\n\n    // function purchase original silver card\n    function purchase_silver() public payable{\n        uint sold_silver = silver_owners.length;\n        uint remaining_silver = silver_max - sold_silver;\n        // require silver card is available to purchase\n        require(remaining_silver > 0);\n        // require transaction has enough balance\n        require(msg.value >= silver_price);\n        // register purchaseOwner into the silver owner list\n        silver_owners.push(msg.sender);\n        \n    }\n    // function buy silver card from other owner\n    function buy_silver(address payable _seller) public payable {\n        // require transaction has enough eth\n        require(msg.value >= silver_price);\n        // transfer ether from new owner to old owner\n        _seller.transfer(msg.value);\n        // replace the new owner with old owner\n        for (uint i = 0 ; i < silver_owners.length ; i++) {\n            if (silver_owners[i] == _seller) {\n                silver_owners[i] = msg.sender;\n            }\n        }\n    }\n    // function get sold silver card amount\n    function get_silver_owner_amount() public view returns(uint) {\n        return silver_owners.length;\n    }\n\n    // function purchase original bronze card\n    function purchase_bronze() public payable{\n        uint sold_bronze = bronze_owners.length;\n        uint remaining_bronze = bronze_max - sold_bronze;\n        // require bronze card is available to purchase\n        require(remaining_bronze > 0);\n        // require transaction has enough balance\n        require(msg.value >= bronze_price);\n        // register purchaseOwner into the bronze owner list\n        bronze_owners.push(msg.sender);\n        \n    }\n    // function buy bronze card from other owner\n    function buy_bronze(address payable _seller) public payable {\n        // require transaction has enough eth\n        require(msg.value >= bronze_price);\n        // transfer ether from new owner to old owner\n        _seller.transfer(msg.value);\n        // replace the new owner with old owner\n        for (uint i = 0 ; i < bronze_owners.length ; i++) {\n            if (bronze_owners[i] == _seller) {\n                bronze_owners[i] = msg.sender;\n            }\n        }\n    }\n    // function get sold bronze card amount\n    function get_bronze_owner_amount() public view returns(uint) {\n        return bronze_owners.length;\n    }\n}\n",
  "sourcePath": "/home/oncemore/Blockchain Work/membership/contracts/Membership.sol",
  "compiler": {
    "name": "solc",
    "version": "0.5.16+commit.9c3226ce.Emscripten.clang"
  },
  "schemaVersion": "3.3.4",
  "updatedAt": "2021-04-29T09:21:05.388Z",
  "devdoc": {
    "methods": {}
  },
  "userdoc": {
    "methods": {}
  }
}