{
  "contractName": "Test",
  "abi": [
    {
      "constant": true,
      "inputs": [
        {
          "internalType": "uint256",
          "name": "",
          "type": "uint256"
        }
      ],
      "name": "gold_list",
      "outputs": [
        {
          "internalType": "address payable",
          "name": "owner",
          "type": "address"
        },
        {
          "internalType": "uint256",
          "name": "price",
          "type": "uint256"
        },
        {
          "internalType": "bool",
          "name": "sell_approve",
          "type": "bool"
        }
      ],
      "payable": false,
      "stateMutability": "view",
      "type": "function"
    },
    {
      "constant": false,
      "inputs": [],
      "name": "invest",
      "outputs": [],
      "payable": true,
      "stateMutability": "payable",
      "type": "function"
    },
    {
      "constant": false,
      "inputs": [],
      "name": "gold_buy",
      "outputs": [],
      "payable": true,
      "stateMutability": "payable",
      "type": "function"
    },
    {
      "constant": false,
      "inputs": [
        {
          "internalType": "uint256",
          "name": "_price",
          "type": "uint256"
        }
      ],
      "name": "gold_sell",
      "outputs": [
        {
          "internalType": "bool",
          "name": "",
          "type": "bool"
        }
      ],
      "payable": true,
      "stateMutability": "payable",
      "type": "function"
    },
    {
      "constant": false,
      "inputs": [
        {
          "internalType": "uint256",
          "name": "card_id",
          "type": "uint256"
        }
      ],
      "name": "gold_request_buy",
      "outputs": [],
      "payable": true,
      "stateMutability": "payable",
      "type": "function"
    }
  ],
  "bytecode": "0x6080604052600060015534801561001557600080fd5b50610559806100256000396000f3fe60806040526004361061004a5760003560e01c806305c9714a1461004f578063147e2e8314610059578063c364c9b71461009f578063e8b5e51f146100cd578063eaa6fd99146100d7575b600080fd5b610057610164565b005b6100856004803603602081101561006f57600080fd5b8101908080359060200190929190505050610259565b604051808215151515815260200191505060405180910390f35b6100cb600480360360208110156100b557600080fd5b8101908080359060200190929190505050610310565b005b6100d5610492565b005b3480156100e357600080fd5b50610110600480360360208110156100fa57600080fd5b8101908080359060200190929190505050610494565b604051808473ffffffffffffffffffffffffffffffffffffffff1673ffffffffffffffffffffffffffffffffffffffff16815260200183815260200182151515158152602001935050505060405180910390f35b600f6001541061017357600080fd5b678ac7230489e8000034101561018857600080fd5b60405180606001604052803373ffffffffffffffffffffffffffffffffffffffff1681526020016000815260200160001515815250600080600154815260200190815260200160002060008201518160000160006101000a81548173ffffffffffffffffffffffffffffffffffffffff021916908373ffffffffffffffffffffffffffffffffffffffff1602179055506020820151816001015560408201518160020160006101000a81548160ff021916908315150217905550905050600160008154809291906001019190505550565b600080600090505b600154811015610305573373ffffffffffffffffffffffffffffffffffffffff1660008083815260200190815260200160002060000160009054906101000a900473ffffffffffffffffffffffffffffffffffffffff1673ffffffffffffffffffffffffffffffffffffffff1614156102f8578260008083815260200190815260200160002060010181905550600191505061030b565b8080600101915050610261565b50600090505b919050565b6103186104eb565b6000808381526020019081526020016000206040518060600160405290816000820160009054906101000a900473ffffffffffffffffffffffffffffffffffffffff1673ffffffffffffffffffffffffffffffffffffffff1673ffffffffffffffffffffffffffffffffffffffff168152602001600182015481526020016002820160009054906101000a900460ff161515151581525050905060008160200151116103c357600080fd5b80602001513410156103d457600080fd5b6001151581604001511515146103e957600080fd5b6000816000015190508073ffffffffffffffffffffffffffffffffffffffff166108fc349081150290604051600060405180830381858888f19350505050158015610438573d6000803e3d6000fd5b503360008085815260200190815260200160002060000160006101000a81548173ffffffffffffffffffffffffffffffffffffffff021916908373ffffffffffffffffffffffffffffffffffffffff160217905550505050565b565b60006020528060005260406000206000915090508060000160009054906101000a900473ffffffffffffffffffffffffffffffffffffffff16908060010154908060020160009054906101000a900460ff16905083565b6040518060600160405280600073ffffffffffffffffffffffffffffffffffffffff16815260200160008152602001600015158152509056fea265627a7a72315820e268c57ada1ff1988284ba2f04202f6db403657904543fe0e0d618c55e7f7eb564736f6c63430005100032",
  "source": "// SPDX-License-Identifier: MIT\npragma solidity >=0.4.21 <0.6.0;\n\ncontract Test {\n    // gold card owner : {address: owner, uint: price}\n    // // if price == 0, owner is not going to sell \n    // // if price != 0, owner is going to sell\n    struct Gold {\n        address payable owner;\n        uint price;\n        bool sell_approve;\n    }\n    // gold card owner list\n    mapping (uint => Gold) public gold_list;\n    // gold card owner account\n    uint gold_owner_count = 0;\n    // gold card default price\n    uint constant gold_price = 1e19;\n    // gold card max amount\n    uint constant gold_max = 15;\n    function invest() external payable {\n        \n    }\n    // gold card buy (MU -> user)\n    function gold_buy() public payable {\n        // require : original card is remaining.\n        require( gold_owner_count < gold_max );\n        // require : ETH is greater than gold card price\n        require( msg.value >= gold_price );\n        // register new gold owner\n        gold_list[gold_owner_count] = Gold(msg.sender, 0, false);\n        gold_owner_count++;\n    }\n    // are going to sell gold card\n    // check if the function caller is gold card owner \n    function gold_sell(uint _price) public payable returns(bool) {\n        for (uint i = 0 ; i < gold_owner_count ; i++) {\n            if (gold_list[i].owner == msg.sender) {\n                gold_list[i].price = _price;\n                return true;\n            }\n        }\n        return false;\n    }\n    // request card buy \n    function gold_request_buy (uint card_id) public payable {\n        Gold memory _gold_card = gold_list[card_id];\n        // require: card is placed on the sell list\n        require( _gold_card.price > 0 );\n        // require: request buy is greater than minimum price\n        require( msg.value >= _gold_card.price );\n        // require : check if card owner approves the request\n        require( _gold_card.sell_approve == true );\n        // transfer ETH from new owner to old owner\n        address payable _seller = _gold_card.owner;\n        address(_seller).transfer(msg.value);\n        // move the card ownership from old owner to new owner\n        gold_list[card_id].owner = msg.sender;\n    }\n}",
  "sourcePath": "/home/oncemore/Blockchain Work/membership/contracts/Test.sol",
  "compiler": {
    "name": "solc",
    "version": "0.5.16+commit.9c3226ce.Emscripten.clang"
  },
  "schemaVersion": "3.3.4",
  "updatedAt": "2021-04-30T21:41:27.763Z",
  "devdoc": {
    "methods": {}
  },
  "userdoc": {
    "methods": {}
  }
}